{
  "_format": "hh-sol-artifact-1",
  "contractName": "Voting",
  "sourceName": "contracts/Voting.sol",
  "abi": [
    {
      "inputs": [],
      "stateMutability": "nonpayable",
      "type": "constructor"
    },
    {
      "anonymous": false,
      "inputs": [
        {
          "indexed": false,
          "internalType": "uint256",
          "name": "id",
          "type": "uint256"
        },
        {
          "indexed": false,
          "internalType": "string",
          "name": "name",
          "type": "string"
        },
        {
          "indexed": false,
          "internalType": "uint256",
          "name": "startTime",
          "type": "uint256"
        },
        {
          "indexed": false,
          "internalType": "uint256",
          "name": "endTime",
          "type": "uint256"
        }
      ],
      "name": "ElectionCreated",
      "type": "event"
    },
    {
      "anonymous": false,
      "inputs": [
        {
          "indexed": false,
          "internalType": "uint256",
          "name": "electionId",
          "type": "uint256"
        },
        {
          "indexed": false,
          "internalType": "uint256",
          "name": "candidateId",
          "type": "uint256"
        },
        {
          "indexed": false,
          "internalType": "address",
          "name": "voter",
          "type": "address"
        }
      ],
      "name": "VoteCast",
      "type": "event"
    },
    {
      "inputs": [],
      "name": "admin",
      "outputs": [
        {
          "internalType": "address",
          "name": "",
          "type": "address"
        }
      ],
      "stateMutability": "view",
      "type": "function"
    },
    {
      "inputs": [
        {
          "internalType": "uint256",
          "name": "",
          "type": "uint256"
        },
        {
          "internalType": "uint256",
          "name": "",
          "type": "uint256"
        }
      ],
      "name": "candidates",
      "outputs": [
        {
          "internalType": "uint256",
          "name": "id",
          "type": "uint256"
        },
        {
          "internalType": "string",
          "name": "name",
          "type": "string"
        },
        {
          "internalType": "uint256",
          "name": "voteCount",
          "type": "uint256"
        }
      ],
      "stateMutability": "view",
      "type": "function"
    },
    {
      "inputs": [
        {
          "internalType": "string",
          "name": "_name",
          "type": "string"
        },
        {
          "internalType": "string[]",
          "name": "_candidateNames",
          "type": "string[]"
        },
        {
          "internalType": "uint256",
          "name": "_durationMinutes",
          "type": "uint256"
        }
      ],
      "name": "createElection",
      "outputs": [],
      "stateMutability": "nonpayable",
      "type": "function"
    },
    {
      "inputs": [],
      "name": "electionCount",
      "outputs": [
        {
          "internalType": "uint256",
          "name": "",
          "type": "uint256"
        }
      ],
      "stateMutability": "view",
      "type": "function"
    },
    {
      "inputs": [
        {
          "internalType": "uint256",
          "name": "",
          "type": "uint256"
        }
      ],
      "name": "elections",
      "outputs": [
        {
          "internalType": "uint256",
          "name": "id",
          "type": "uint256"
        },
        {
          "internalType": "string",
          "name": "name",
          "type": "string"
        },
        {
          "internalType": "uint256",
          "name": "startTime",
          "type": "uint256"
        },
        {
          "internalType": "uint256",
          "name": "endTime",
          "type": "uint256"
        },
        {
          "internalType": "bool",
          "name": "exists",
          "type": "bool"
        }
      ],
      "stateMutability": "view",
      "type": "function"
    },
    {
      "inputs": [],
      "name": "getAllElections",
      "outputs": [
        {
          "components": [
            {
              "internalType": "uint256",
              "name": "id",
              "type": "uint256"
            },
            {
              "internalType": "string",
              "name": "name",
              "type": "string"
            },
            {
              "internalType": "uint256",
              "name": "startTime",
              "type": "uint256"
            },
            {
              "internalType": "uint256",
              "name": "endTime",
              "type": "uint256"
            },
            {
              "internalType": "bool",
              "name": "exists",
              "type": "bool"
            }
          ],
          "internalType": "struct Voting.Election[]",
          "name": "",
          "type": "tuple[]"
        }
      ],
      "stateMutability": "view",
      "type": "function"
    },
    {
      "inputs": [
        {
          "internalType": "uint256",
          "name": "_electionId",
          "type": "uint256"
        }
      ],
      "name": "getCandidates",
      "outputs": [
        {
          "components": [
            {
              "internalType": "uint256",
              "name": "id",
              "type": "uint256"
            },
            {
              "internalType": "string",
              "name": "name",
              "type": "string"
            },
            {
              "internalType": "uint256",
              "name": "voteCount",
              "type": "uint256"
            }
          ],
          "internalType": "struct Voting.Candidate[]",
          "name": "",
          "type": "tuple[]"
        }
      ],
      "stateMutability": "view",
      "type": "function"
    },
    {
      "inputs": [
        {
          "internalType": "uint256",
          "name": "_electionId",
          "type": "uint256"
        }
      ],
      "name": "getElection",
      "outputs": [
        {
          "components": [
            {
              "internalType": "uint256",
              "name": "id",
              "type": "uint256"
            },
            {
              "internalType": "string",
              "name": "name",
              "type": "string"
            },
            {
              "internalType": "uint256",
              "name": "startTime",
              "type": "uint256"
            },
            {
              "internalType": "uint256",
              "name": "endTime",
              "type": "uint256"
            },
            {
              "internalType": "bool",
              "name": "exists",
              "type": "bool"
            }
          ],
          "internalType": "struct Voting.Election",
          "name": "",
          "type": "tuple"
        }
      ],
      "stateMutability": "view",
      "type": "function"
    },
    {
      "inputs": [
        {
          "internalType": "uint256",
          "name": "",
          "type": "uint256"
        },
        {
          "internalType": "address",
          "name": "",
          "type": "address"
        }
      ],
      "name": "hasVoted",
      "outputs": [
        {
          "internalType": "bool",
          "name": "",
          "type": "bool"
        }
      ],
      "stateMutability": "view",
      "type": "function"
    },
    {
      "inputs": [
        {
          "internalType": "uint256",
          "name": "_electionId",
          "type": "uint256"
        },
        {
          "internalType": "uint256",
          "name": "_candidateId",
          "type": "uint256"
        }
      ],
      "name": "vote",
      "outputs": [],
      "stateMutability": "nonpayable",
      "type": "function"
    }
  ],
  "bytecode": "0x6080604052348015600f57600080fd5b50336000806101000a81548173ffffffffffffffffffffffffffffffffffffffff021916908373ffffffffffffffffffffffffffffffffffffffff160217905550611e588061005f6000396000f3fe608060405234801561001057600080fd5b506004361061009e5760003560e01c8063997d283011610066578063997d2830146101875780639d710777146101a5578063b31dc875146101d5578063b384abef146101f1578063f851a4401461020d5761009e565b80633e39a7a5146100a357806343859632146100d35780635e6fef01146101035780637de14242146101375780637fd5f26814610169575b600080fd5b6100bd60048036038101906100b89190610dac565b61022b565b6040516100ca9190610f8a565b60405180910390f35b6100ed60048036038101906100e8919061100a565b610343565b6040516100fa9190611065565b60405180910390f35b61011d60048036038101906101189190610dac565b610372565b60405161012e9594939291906110d9565b60405180910390f35b610151600480360381019061014c9190611133565b61043d565b60405161016093929190611173565b60405180910390f35b61017161050c565b60405161017e91906112f8565b60405180910390f35b61018f6106a6565b60405161019c919061131a565b60405180910390f35b6101bf60048036038101906101ba9190610dac565b6106ac565b6040516101cc91906113ab565b60405180910390f35b6101ef60048036038101906101ea91906115e8565b6107a4565b005b61020b60048036038101906102069190611133565b610a0e565b005b610215610d0d565b6040516102229190611682565b60405180910390f35b606060036000838152602001908152602001600020805480602002602001604051908101604052809291908181526020016000905b8282101561033857838290600052602060002090600302016040518060600160405290816000820154815260200160018201805461029d906116cc565b80601f01602080910402602001604051908101604052809291908181526020018280546102c9906116cc565b80156103165780601f106102eb57610100808354040283529160200191610316565b820191906000526020600020905b8154815290600101906020018083116102f957829003601f168201915b5050505050815260200160028201548152505081526020019060010190610260565b505050509050919050565b60046020528160005260406000206020528060005260406000206000915091509054906101000a900460ff1681565b600260205280600052604060002060009150905080600001549080600101805461039b906116cc565b80601f01602080910402602001604051908101604052809291908181526020018280546103c7906116cc565b80156104145780601f106103e957610100808354040283529160200191610414565b820191906000526020600020905b8154815290600101906020018083116103f757829003601f168201915b5050505050908060020154908060030154908060040160009054906101000a900460ff16905085565b6003602052816000526040600020818154811061045957600080fd5b906000526020600020906003020160009150915050806000015490806001018054610483906116cc565b80601f01602080910402602001604051908101604052809291908181526020018280546104af906116cc565b80156104fc5780601f106104d1576101008083540402835291602001916104fc565b820191906000526020600020905b8154815290600101906020018083116104df57829003601f168201915b5050505050908060020154905083565b6060600060015467ffffffffffffffff81111561052c5761052b6113d7565b5b60405190808252806020026020018201604052801561056557816020015b610552610d31565b81526020019060019003908161054a5790505b5090506000600190505b600154811161069e57600260008281526020019081526020016000206040518060a0016040529081600082015481526020016001820180546105b0906116cc565b80601f01602080910402602001604051908101604052809291908181526020018280546105dc906116cc565b80156106295780601f106105fe57610100808354040283529160200191610629565b820191906000526020600020905b81548152906001019060200180831161060c57829003601f168201915b5050505050815260200160028201548152602001600382015481526020016004820160009054906101000a900460ff1615151515815250508260018361066f919061172c565b815181106106805761067f611760565b5b602002602001018190525080806106969061178f565b91505061056f565b508091505090565b60015481565b6106b4610d31565b600260008381526020019081526020016000206040518060a0016040529081600082015481526020016001820180546106ec906116cc565b80601f0160208091040260200160405190810160405280929190818152602001828054610718906116cc565b80156107655780601f1061073a57610100808354040283529160200191610765565b820191906000526020600020905b81548152906001019060200180831161074857829003601f168201915b5050505050815260200160028201548152602001600382015481526020016004820160009054906101000a900460ff1615151515815250509050919050565b60008054906101000a900473ffffffffffffffffffffffffffffffffffffffff1673ffffffffffffffffffffffffffffffffffffffff163373ffffffffffffffffffffffffffffffffffffffff1614610832576040517f08c379a000000000000000000000000000000000000000000000000000000000815260040161082990611849565b60405180910390fd5b600160008154809291906108459061178f565b9190505550600060015490506040518060a00160405280828152602001858152602001428152602001603c8461087b9190611869565b4261088691906118ab565b815260200160011515815250600260008381526020019081526020016000206000820151816000015560208201518160010190816108c49190611a8b565b50604082015181600201556060820151816003015560808201518160040160006101000a81548160ff02191690831515021790555090505060005b83518110156109b35760036000838152602001908152602001600020604051806060016040528083815260200186848151811061093f5761093e611760565b5b60200260200101518152602001600081525090806001815401808255809150506001900390600052602060002090600302016000909190919091506000820151816000015560208201518160010190816109999190611a8b565b5060408201518160020155505080806001019150506108ff565b507fe7a0aae5d733e07e246dea86213a1ac1b0aa8554bde889bb75c12752f44e53d9818542603c866109e59190611869565b426109f091906118ab565b604051610a009493929190611b5d565b60405180910390a150505050565b6002600083815260200190815260200160002060040160009054906101000a900460ff16610a71576040517f08c379a0000000000000000000000000000000000000000000000000000000008152600401610a6890611bf5565b60405180910390fd5b6002600083815260200190815260200160002060020154421015610aca576040517f08c379a0000000000000000000000000000000000000000000000000000000008152600401610ac190611c61565b60405180910390fd5b6002600083815260200190815260200160002060030154421115610b23576040517f08c379a0000000000000000000000000000000000000000000000000000000008152600401610b1a90611ccd565b60405180910390fd5b6004600083815260200190815260200160002060003373ffffffffffffffffffffffffffffffffffffffff1673ffffffffffffffffffffffffffffffffffffffff16815260200190815260200160002060009054906101000a900460ff1615610bc1576040517f08c379a0000000000000000000000000000000000000000000000000000000008152600401610bb890611d5f565b60405180910390fd5b60036000838152602001908152602001600020805490508110610c19576040517f08c379a0000000000000000000000000000000000000000000000000000000008152600401610c1090611dcb565b60405180910390fd5b600360008381526020019081526020016000208181548110610c3e57610c3d611760565b5b90600052602060002090600302016002016000815480929190610c609061178f565b919050555060016004600084815260200190815260200160002060003373ffffffffffffffffffffffffffffffffffffffff1673ffffffffffffffffffffffffffffffffffffffff16815260200190815260200160002060006101000a81548160ff0219169083151502179055507f7fe1d4e6b34e228b5dc059fcdc037c71b216fb2417f47c171e505144a5e4f5fc828233604051610d0193929190611deb565b60405180910390a15050565b60008054906101000a900473ffffffffffffffffffffffffffffffffffffffff1681565b6040518060a00160405280600081526020016060815260200160008152602001600081526020016000151581525090565b6000604051905090565b600080fd5b600080fd5b6000819050919050565b610d8981610d76565b8114610d9457600080fd5b50565b600081359050610da681610d80565b92915050565b600060208284031215610dc257610dc1610d6c565b5b6000610dd084828501610d97565b91505092915050565b600081519050919050565b600082825260208201905092915050565b6000819050602082019050919050565b610e0e81610d76565b82525050565b600081519050919050565b600082825260208201905092915050565b60005b83811015610e4e578082015181840152602081019050610e33565b60008484015250505050565b6000601f19601f8301169050919050565b6000610e7682610e14565b610e808185610e1f565b9350610e90818560208601610e30565b610e9981610e5a565b840191505092915050565b6000606083016000830151610ebc6000860182610e05565b5060208301518482036020860152610ed48282610e6b565b9150506040830151610ee96040860182610e05565b508091505092915050565b6000610f008383610ea4565b905092915050565b6000602082019050919050565b6000610f2082610dd9565b610f2a8185610de4565b935083602082028501610f3c85610df5565b8060005b85811015610f785784840389528151610f598582610ef4565b9450610f6483610f08565b925060208a01995050600181019050610f40565b50829750879550505050505092915050565b60006020820190508181036000830152610fa48184610f15565b905092915050565b600073ffffffffffffffffffffffffffffffffffffffff82169050919050565b6000610fd782610fac565b9050919050565b610fe781610fcc565b8114610ff257600080fd5b50565b60008135905061100481610fde565b92915050565b6000806040838503121561102157611020610d6c565b5b600061102f85828601610d97565b925050602061104085828601610ff5565b9150509250929050565b60008115159050919050565b61105f8161104a565b82525050565b600060208201905061107a6000830184611056565b92915050565b61108981610d76565b82525050565b600082825260208201905092915050565b60006110ab82610e14565b6110b5818561108f565b93506110c5818560208601610e30565b6110ce81610e5a565b840191505092915050565b600060a0820190506110ee6000830188611080565b818103602083015261110081876110a0565b905061110f6040830186611080565b61111c6060830185611080565b6111296080830184611056565b9695505050505050565b6000806040838503121561114a57611149610d6c565b5b600061115885828601610d97565b925050602061116985828601610d97565b9150509250929050565b60006060820190506111886000830186611080565b818103602083015261119a81856110a0565b90506111a96040830184611080565b949350505050565b600081519050919050565b600082825260208201905092915050565b6000819050602082019050919050565b6111e68161104a565b82525050565b600060a0830160008301516112046000860182610e05565b506020830151848203602086015261121c8282610e6b565b91505060408301516112316040860182610e05565b5060608301516112446060860182610e05565b50608083015161125760808601826111dd565b508091505092915050565b600061126e83836111ec565b905092915050565b6000602082019050919050565b600061128e826111b1565b61129881856111bc565b9350836020820285016112aa856111cd565b8060005b858110156112e657848403895281516112c78582611262565b94506112d283611276565b925060208a019950506001810190506112ae565b50829750879550505050505092915050565b600060208201905081810360008301526113128184611283565b905092915050565b600060208201905061132f6000830184611080565b92915050565b600060a08301600083015161134d6000860182610e05565b50602083015184820360208601526113658282610e6b565b915050604083015161137a6040860182610e05565b50606083015161138d6060860182610e05565b5060808301516113a060808601826111dd565b508091505092915050565b600060208201905081810360008301526113c58184611335565b905092915050565b600080fd5b600080fd5b7f4e487b7100000000000000000000000000000000000000000000000000000000600052604160045260246000fd5b61140f82610e5a565b810181811067ffffffffffffffff8211171561142e5761142d6113d7565b5b80604052505050565b6000611441610d62565b905061144d8282611406565b919050565b600067ffffffffffffffff82111561146d5761146c6113d7565b5b61147682610e5a565b9050602081019050919050565b82818337600083830152505050565b60006114a56114a084611452565b611437565b9050828152602081018484840111156114c1576114c06113d2565b5b6114cc848285611483565b509392505050565b600082601f8301126114e9576114e86113cd565b5b81356114f9848260208601611492565b91505092915050565b600067ffffffffffffffff82111561151d5761151c6113d7565b5b602082029050602081019050919050565b600080fd5b600061154661154184611502565b611437565b905080838252602082019050602084028301858111156115695761156861152e565b5b835b818110156115b057803567ffffffffffffffff81111561158e5761158d6113cd565b5b80860161159b89826114d4565b8552602085019450505060208101905061156b565b5050509392505050565b600082601f8301126115cf576115ce6113cd565b5b81356115df848260208601611533565b91505092915050565b60008060006060848603121561160157611600610d6c565b5b600084013567ffffffffffffffff81111561161f5761161e610d71565b5b61162b868287016114d4565b935050602084013567ffffffffffffffff81111561164c5761164b610d71565b5b611658868287016115ba565b925050604061166986828701610d97565b9150509250925092565b61167c81610fcc565b82525050565b60006020820190506116976000830184611673565b92915050565b7f4e487b7100000000000000000000000000000000000000000000000000000000600052602260045260246000fd5b600060028204905060018216806116e457607f821691505b6020821081036116f7576116f661169d565b5b50919050565b7f4e487b7100000000000000000000000000000000000000000000000000000000600052601160045260246000fd5b600061173782610d76565b915061174283610d76565b925082820390508181111561175a576117596116fd565b5b92915050565b7f4e487b7100000000000000000000000000000000000000000000000000000000600052603260045260246000fd5b600061179a82610d76565b91507fffffffffffffffffffffffffffffffffffffffffffffffffffffffffffffffff82036117cc576117cb6116fd565b5b600182019050919050565b7f4f6e6c792061646d696e2063616e20706572666f726d2074686973206163746960008201527f6f6e000000000000000000000000000000000000000000000000000000000000602082015250565b600061183360228361108f565b915061183e826117d7565b604082019050919050565b6000602082019050818103600083015261186281611826565b9050919050565b600061187482610d76565b915061187f83610d76565b925082820261188d81610d76565b915082820484148315176118a4576118a36116fd565b5b5092915050565b60006118b682610d76565b91506118c183610d76565b92508282019050808211156118d9576118d86116fd565b5b92915050565b60008190508160005260206000209050919050565b60006020601f8301049050919050565b600082821b905092915050565b6000600883026119417fffffffffffffffffffffffffffffffffffffffffffffffffffffffffffffffff82611904565b61194b8683611904565b95508019841693508086168417925050509392505050565b6000819050919050565b600061198861198361197e84610d76565b611963565b610d76565b9050919050565b6000819050919050565b6119a28361196d565b6119b66119ae8261198f565b848454611911565b825550505050565b600090565b6119cb6119be565b6119d6818484611999565b505050565b5b818110156119fa576119ef6000826119c3565b6001810190506119dc565b5050565b601f821115611a3f57611a10816118df565b611a19846118f4565b81016020851015611a28578190505b611a3c611a34856118f4565b8301826119db565b50505b505050565b600082821c905092915050565b6000611a6260001984600802611a44565b1980831691505092915050565b6000611a7b8383611a51565b9150826002028217905092915050565b611a9482610e14565b67ffffffffffffffff811115611aad57611aac6113d7565b5b611ab782546116cc565b611ac28282856119fe565b600060209050601f831160018114611af55760008415611ae3578287015190505b611aed8582611a6f565b865550611b55565b601f198416611b03866118df565b60005b82811015611b2b57848901518255600182019150602085019450602081019050611b06565b86831015611b485784890151611b44601f891682611a51565b8355505b6001600288020188555050505b505050505050565b6000608082019050611b726000830187611080565b8181036020830152611b8481866110a0565b9050611b936040830185611080565b611ba06060830184611080565b95945050505050565b7f456c656374696f6e20646f6573206e6f74206578697374000000000000000000600082015250565b6000611bdf60178361108f565b9150611bea82611ba9565b602082019050919050565b60006020820190508181036000830152611c0e81611bd2565b9050919050565b7f566f74696e6720686173206e6f74207374617274656400000000000000000000600082015250565b6000611c4b60168361108f565b9150611c5682611c15565b602082019050919050565b60006020820190508181036000830152611c7a81611c3e565b9050919050565b7f566f74696e672068617320656e64656400000000000000000000000000000000600082015250565b6000611cb760108361108f565b9150611cc282611c81565b602082019050919050565b60006020820190508181036000830152611ce681611caa565b9050919050565b7f596f75206861766520616c726561647920766f74656420696e2074686973206560008201527f6c656374696f6e00000000000000000000000000000000000000000000000000602082015250565b6000611d4960278361108f565b9150611d5482611ced565b604082019050919050565b60006020820190508181036000830152611d7881611d3c565b9050919050565b7f496e76616c69642063616e646964617465000000000000000000000000000000600082015250565b6000611db560118361108f565b9150611dc082611d7f565b602082019050919050565b60006020820190508181036000830152611de481611da8565b9050919050565b6000606082019050611e006000830186611080565b611e0d6020830185611080565b611e1a6040830184611673565b94935050505056fea2646970667358221220aaa50504f8ccffc7454a3fef3896ac8719ad3227c36473c5ede328f758600edb64736f6c634300081c0033",
  "linkReferences": {},
  "deployedLinkReferences": {}
}