{
  "_format": "hh-sol-artifact-1",
  "contractName": "Voting",
  "sourceName": "contracts/Voting.sol",
  "abi": [
    {
      "inputs": [],
      "stateMutability": "nonpayable",
      "type": "constructor"
    },
    {
      "anonymous": false,
      "inputs": [
        {
          "indexed": false,
          "internalType": "uint256",
          "name": "id",
          "type": "uint256"
        },
        {
          "indexed": false,
          "internalType": "string",
          "name": "name",
          "type": "string"
        },
        {
          "indexed": false,
          "internalType": "uint256",
          "name": "duration",
          "type": "uint256"
        }
      ],
      "name": "ElectionCreated",
      "type": "event"
    },
    {
      "anonymous": false,
      "inputs": [
        {
          "indexed": false,
          "internalType": "uint256",
          "name": "id",
          "type": "uint256"
        },
        {
          "indexed": false,
          "internalType": "uint256",
          "name": "endTime",
          "type": "uint256"
        }
      ],
      "name": "ElectionEnded",
      "type": "event"
    },
    {
      "anonymous": false,
      "inputs": [
        {
          "indexed": false,
          "internalType": "uint256",
          "name": "id",
          "type": "uint256"
        },
        {
          "indexed": false,
          "internalType": "uint256",
          "name": "startTime",
          "type": "uint256"
        },
        {
          "indexed": false,
          "internalType": "uint256",
          "name": "endTime",
          "type": "uint256"
        }
      ],
      "name": "ElectionStarted",
      "type": "event"
    },
    {
      "anonymous": false,
      "inputs": [
        {
          "indexed": false,
          "internalType": "uint256",
          "name": "electionId",
          "type": "uint256"
        },
        {
          "indexed": false,
          "internalType": "uint256",
          "name": "candidateId",
          "type": "uint256"
        },
        {
          "indexed": false,
          "internalType": "address",
          "name": "voter",
          "type": "address"
        }
      ],
      "name": "VoteCast",
      "type": "event"
    },
    {
      "inputs": [],
      "name": "admin",
      "outputs": [
        {
          "internalType": "address",
          "name": "",
          "type": "address"
        }
      ],
      "stateMutability": "view",
      "type": "function"
    },
    {
      "inputs": [
        {
          "internalType": "uint256",
          "name": "",
          "type": "uint256"
        },
        {
          "internalType": "uint256",
          "name": "",
          "type": "uint256"
        }
      ],
      "name": "candidates",
      "outputs": [
        {
          "internalType": "uint256",
          "name": "id",
          "type": "uint256"
        },
        {
          "internalType": "string",
          "name": "name",
          "type": "string"
        },
        {
          "internalType": "uint256",
          "name": "voteCount",
          "type": "uint256"
        }
      ],
      "stateMutability": "view",
      "type": "function"
    },
    {
      "inputs": [
        {
          "internalType": "string",
          "name": "_name",
          "type": "string"
        },
        {
          "internalType": "string[]",
          "name": "_candidateNames",
          "type": "string[]"
        },
        {
          "internalType": "uint256",
          "name": "_durationMinutes",
          "type": "uint256"
        }
      ],
      "name": "createElection",
      "outputs": [],
      "stateMutability": "nonpayable",
      "type": "function"
    },
    {
      "inputs": [],
      "name": "electionCount",
      "outputs": [
        {
          "internalType": "uint256",
          "name": "",
          "type": "uint256"
        }
      ],
      "stateMutability": "view",
      "type": "function"
    },
    {
      "inputs": [
        {
          "internalType": "uint256",
          "name": "",
          "type": "uint256"
        }
      ],
      "name": "elections",
      "outputs": [
        {
          "internalType": "uint256",
          "name": "id",
          "type": "uint256"
        },
        {
          "internalType": "string",
          "name": "name",
          "type": "string"
        },
        {
          "internalType": "uint256",
          "name": "duration",
          "type": "uint256"
        },
        {
          "internalType": "uint256",
          "name": "startTime",
          "type": "uint256"
        },
        {
          "internalType": "uint256",
          "name": "endTime",
          "type": "uint256"
        },
        {
          "internalType": "bool",
          "name": "exists",
          "type": "bool"
        },
        {
          "internalType": "bool",
          "name": "isStarted",
          "type": "bool"
        },
        {
          "internalType": "bool",
          "name": "isEnded",
          "type": "bool"
        }
      ],
      "stateMutability": "view",
      "type": "function"
    },
    {
      "inputs": [
        {
          "internalType": "uint256",
          "name": "_electionId",
          "type": "uint256"
        }
      ],
      "name": "endElection",
      "outputs": [],
      "stateMutability": "nonpayable",
      "type": "function"
    },
    {
      "inputs": [],
      "name": "getAllElections",
      "outputs": [
        {
          "components": [
            {
              "internalType": "uint256",
              "name": "id",
              "type": "uint256"
            },
            {
              "internalType": "string",
              "name": "name",
              "type": "string"
            },
            {
              "internalType": "uint256",
              "name": "duration",
              "type": "uint256"
            },
            {
              "internalType": "uint256",
              "name": "startTime",
              "type": "uint256"
            },
            {
              "internalType": "uint256",
              "name": "endTime",
              "type": "uint256"
            },
            {
              "internalType": "bool",
              "name": "exists",
              "type": "bool"
            },
            {
              "internalType": "bool",
              "name": "isStarted",
              "type": "bool"
            },
            {
              "internalType": "bool",
              "name": "isEnded",
              "type": "bool"
            }
          ],
          "internalType": "struct Voting.Election[]",
          "name": "",
          "type": "tuple[]"
        }
      ],
      "stateMutability": "view",
      "type": "function"
    },
    {
      "inputs": [
        {
          "internalType": "uint256",
          "name": "_electionId",
          "type": "uint256"
        }
      ],
      "name": "getCandidates",
      "outputs": [
        {
          "components": [
            {
              "internalType": "uint256",
              "name": "id",
              "type": "uint256"
            },
            {
              "internalType": "string",
              "name": "name",
              "type": "string"
            },
            {
              "internalType": "uint256",
              "name": "voteCount",
              "type": "uint256"
            }
          ],
          "internalType": "struct Voting.Candidate[]",
          "name": "",
          "type": "tuple[]"
        }
      ],
      "stateMutability": "view",
      "type": "function"
    },
    {
      "inputs": [
        {
          "internalType": "uint256",
          "name": "_electionId",
          "type": "uint256"
        }
      ],
      "name": "getElection",
      "outputs": [
        {
          "components": [
            {
              "internalType": "uint256",
              "name": "id",
              "type": "uint256"
            },
            {
              "internalType": "string",
              "name": "name",
              "type": "string"
            },
            {
              "internalType": "uint256",
              "name": "duration",
              "type": "uint256"
            },
            {
              "internalType": "uint256",
              "name": "startTime",
              "type": "uint256"
            },
            {
              "internalType": "uint256",
              "name": "endTime",
              "type": "uint256"
            },
            {
              "internalType": "bool",
              "name": "exists",
              "type": "bool"
            },
            {
              "internalType": "bool",
              "name": "isStarted",
              "type": "bool"
            },
            {
              "internalType": "bool",
              "name": "isEnded",
              "type": "bool"
            }
          ],
          "internalType": "struct Voting.Election",
          "name": "",
          "type": "tuple"
        }
      ],
      "stateMutability": "view",
      "type": "function"
    },
    {
      "inputs": [
        {
          "internalType": "uint256",
          "name": "",
          "type": "uint256"
        },
        {
          "internalType": "address",
          "name": "",
          "type": "address"
        }
      ],
      "name": "hasVoted",
      "outputs": [
        {
          "internalType": "bool",
          "name": "",
          "type": "bool"
        }
      ],
      "stateMutability": "view",
      "type": "function"
    },
    {
      "inputs": [
        {
          "internalType": "uint256",
          "name": "_electionId",
          "type": "uint256"
        }
      ],
      "name": "startElection",
      "outputs": [],
      "stateMutability": "nonpayable",
      "type": "function"
    },
    {
      "inputs": [
        {
          "internalType": "uint256",
          "name": "_electionId",
          "type": "uint256"
        },
        {
          "internalType": "uint256",
          "name": "_candidateId",
          "type": "uint256"
        }
      ],
      "name": "vote",
      "outputs": [],
      "stateMutability": "nonpayable",
      "type": "function"
    }
  ],
  "bytecode": "0x6080604052348015600f57600080fd5b50336000806101000a81548173ffffffffffffffffffffffffffffffffffffffff021916908373ffffffffffffffffffffffffffffffffffffffff16021790555061266e8061005f6000396000f3fe608060405234801561001057600080fd5b50600436106100b45760003560e01c8063997d283011610071578063997d2830146101bc5780639c98bcbb146101da5780639d710777146101f6578063b31dc87514610226578063b384abef14610242578063f851a4401461025e576100b4565b80633e39a7a5146100b957806343859632146100e95780635e6fef01146101195780636d32dc4b146101505780637de142421461016c5780637fd5f2681461019e575b600080fd5b6100d360048036038101906100ce919061135f565b61027c565b6040516100e0919061153d565b60405180910390f35b61010360048036038101906100fe91906115bd565b610394565b6040516101109190611618565b60405180910390f35b610133600480360381019061012e919061135f565b6103c3565b60405161014798979695949392919061168c565b60405180910390f35b61016a6004803603810190610165919061135f565b6104ba565b005b61018660048036038101906101819190611711565b6106e5565b60405161019593929190611751565b60405180910390f35b6101a66107b4565b6040516101b39190611910565b60405180910390f35b6101c461098f565b6040516101d19190611932565b60405180910390f35b6101f460048036038101906101ef919061135f565b610995565b005b610210600480360381019061020b919061135f565b610b91565b60405161021d91906119fd565b60405180910390f35b610240600480360381019061023b9190611c3a565b610cca565b005b61025c60048036038101906102579190611711565b610f69565b005b6102666112a6565b6040516102739190611cd4565b60405180910390f35b606060036000838152602001908152602001600020805480602002602001604051908101604052809291908181526020016000905b828210156103895783829060005260206000209060030201604051806060016040529081600082015481526020016001820180546102ee90611d1e565b80601f016020809104026020016040519081016040528092919081815260200182805461031a90611d1e565b80156103675780601f1061033c57610100808354040283529160200191610367565b820191906000526020600020905b81548152906001019060200180831161034a57829003601f168201915b50505050508152602001600282015481525050815260200190600101906102b1565b505050509050919050565b60046020528160005260406000206020528060005260406000206000915091509054906101000a900460ff1681565b60026020528060005260406000206000915090508060000154908060010180546103ec90611d1e565b80601f016020809104026020016040519081016040528092919081815260200182805461041890611d1e565b80156104655780601f1061043a57610100808354040283529160200191610465565b820191906000526020600020905b81548152906001019060200180831161044857829003601f168201915b5050505050908060020154908060030154908060040154908060050160009054906101000a900460ff16908060050160019054906101000a900460ff16908060050160029054906101000a900460ff16905088565b60008054906101000a900473ffffffffffffffffffffffffffffffffffffffff1673ffffffffffffffffffffffffffffffffffffffff163373ffffffffffffffffffffffffffffffffffffffff1614610548576040517f08c379a000000000000000000000000000000000000000000000000000000000815260040161053f90611dc1565b60405180910390fd5b60006002600083815260200190815260200160002090508060050160009054906101000a900460ff166105b0576040517f08c379a00000000000000000000000000000000000000000000000000000000081526004016105a790611e2d565b60405180910390fd5b8060050160019054906101000a900460ff1615610602576040517f08c379a00000000000000000000000000000000000000000000000000000000081526004016105f990611e99565b60405180910390fd5b8060050160029054906101000a900460ff1615610654576040517f08c379a000000000000000000000000000000000000000000000000000000000815260040161064b90611f05565b60405180910390fd5b60018160050160016101000a81548160ff021916908315150217905550428160030181905550603c816002015461068b9190611f54565b426106969190611f96565b81600401819055507f05c86f625f5abd1385c78f66fa5cae221087d7ef4e0a8b37efdfd0592c85a75982826003015483600401546040516106d993929190611fca565b60405180910390a15050565b6003602052816000526040600020818154811061070157600080fd5b90600052602060002090600302016000915091505080600001549080600101805461072b90611d1e565b80601f016020809104026020016040519081016040528092919081815260200182805461075790611d1e565b80156107a45780601f10610779576101008083540402835291602001916107a4565b820191906000526020600020905b81548152906001019060200180831161078757829003601f168201915b5050505050908060020154905083565b6060600060015467ffffffffffffffff8111156107d4576107d3611a29565b5b60405190808252806020026020018201604052801561080d57816020015b6107fa6112ca565b8152602001906001900390816107f25790505b5090506000600190505b60015481116109875760026000828152602001908152602001600020604051806101000160405290816000820154815260200160018201805461085990611d1e565b80601f016020809104026020016040519081016040528092919081815260200182805461088590611d1e565b80156108d25780601f106108a7576101008083540402835291602001916108d2565b820191906000526020600020905b8154815290600101906020018083116108b557829003601f168201915b505050505081526020016002820154815260200160038201548152602001600482015481526020016005820160009054906101000a900460ff161515151581526020016005820160019054906101000a900460ff161515151581526020016005820160029054906101000a900460ff161515151581525050826001836109589190612001565b8151811061096957610968612035565b5b6020026020010181905250808061097f90612064565b915050610817565b508091505090565b60015481565b60008054906101000a900473ffffffffffffffffffffffffffffffffffffffff1673ffffffffffffffffffffffffffffffffffffffff163373ffffffffffffffffffffffffffffffffffffffff1614610a23576040517f08c379a0000000000000000000000000000000000000000000000000000000008152600401610a1a90611dc1565b60405180910390fd5b60006002600083815260200190815260200160002090508060050160009054906101000a900460ff16610a8b576040517f08c379a0000000000000000000000000000000000000000000000000000000008152600401610a8290611e2d565b60405180910390fd5b8060050160019054906101000a900460ff16610adc576040517f08c379a0000000000000000000000000000000000000000000000000000000008152600401610ad3906120f8565b60405180910390fd5b8060050160029054906101000a900460ff1615610b2e576040517f08c379a0000000000000000000000000000000000000000000000000000000008152600401610b2590611f05565b60405180910390fd5b60018160050160026101000a81548160ff0219169083151502179055504281600401819055507f32e2c12037f9600b91a766ce53eab6909f3bdb865851cd9a8c7fafbdf249a9ce8242604051610b85929190612118565b60405180910390a15050565b610b996112ca565b600260008381526020019081526020016000206040518061010001604052908160008201548152602001600182018054610bd290611d1e565b80601f0160208091040260200160405190810160405280929190818152602001828054610bfe90611d1e565b8015610c4b5780601f10610c2057610100808354040283529160200191610c4b565b820191906000526020600020905b815481529060010190602001808311610c2e57829003601f168201915b505050505081526020016002820154815260200160038201548152602001600482015481526020016005820160009054906101000a900460ff161515151581526020016005820160019054906101000a900460ff161515151581526020016005820160029054906101000a900460ff1615151515815250509050919050565b60008054906101000a900473ffffffffffffffffffffffffffffffffffffffff1673ffffffffffffffffffffffffffffffffffffffff163373ffffffffffffffffffffffffffffffffffffffff1614610d58576040517f08c379a0000000000000000000000000000000000000000000000000000000008152600401610d4f90611dc1565b60405180910390fd5b60016000815480929190610d6b90612064565b91905055506000600154905060405180610100016040528082815260200185815260200183815260200160008152602001600081526020016001151581526020016000151581526020016000151581525060026000838152602001908152602001600020600082015181600001556020820151816001019081610dee91906122ed565b5060408201518160020155606082015181600301556080820151816004015560a08201518160050160006101000a81548160ff02191690831515021790555060c08201518160050160016101000a81548160ff02191690831515021790555060e08201518160050160026101000a81548160ff02191690831515021790555090505060005b8351811015610f2757600360008381526020019081526020016000206040518060600160405280838152602001868481518110610eb357610eb2612035565b5b6020026020010151815260200160008152509080600181540180825580915050600190039060005260206000209060030201600090919091909150600082015181600001556020820151816001019081610f0d91906122ed565b506040820151816002015550508080600101915050610e73565b507f43131521170c5b80ffe9526cfec987f5a24eb1f6c4bda47c41a5e4b8388afe5c818584604051610f5b93929190611751565b60405180910390a150505050565b60006002600084815260200190815260200160002090508060050160009054906101000a900460ff16610fd1576040517f08c379a0000000000000000000000000000000000000000000000000000000008152600401610fc890611e2d565b60405180910390fd5b8060050160019054906101000a900460ff16611022576040517f08c379a00000000000000000000000000000000000000000000000000000000081526004016110199061240b565b60405180910390fd5b8060050160029054906101000a900460ff1615611074576040517f08c379a000000000000000000000000000000000000000000000000000000000815260040161106b90612477565b60405180910390fd5b80600401544211156110bb576040517f08c379a00000000000000000000000000000000000000000000000000000000081526004016110b2906124e3565b60405180910390fd5b6004600084815260200190815260200160002060003373ffffffffffffffffffffffffffffffffffffffff1673ffffffffffffffffffffffffffffffffffffffff16815260200190815260200160002060009054906101000a900460ff1615611159576040517f08c379a000000000000000000000000000000000000000000000000000000000815260040161115090612575565b60405180910390fd5b600360008481526020019081526020016000208054905082106111b1576040517f08c379a00000000000000000000000000000000000000000000000000000000081526004016111a8906125e1565b60405180910390fd5b6003600084815260200190815260200160002082815481106111d6576111d5612035565b5b906000526020600020906003020160020160008154809291906111f890612064565b919050555060016004600085815260200190815260200160002060003373ffffffffffffffffffffffffffffffffffffffff1673ffffffffffffffffffffffffffffffffffffffff16815260200190815260200160002060006101000a81548160ff0219169083151502179055507f7fe1d4e6b34e228b5dc059fcdc037c71b216fb2417f47c171e505144a5e4f5fc83833360405161129993929190612601565b60405180910390a1505050565b60008054906101000a900473ffffffffffffffffffffffffffffffffffffffff1681565b60405180610100016040528060008152602001606081526020016000815260200160008152602001600081526020016000151581526020016000151581526020016000151581525090565b6000604051905090565b600080fd5b600080fd5b6000819050919050565b61133c81611329565b811461134757600080fd5b50565b60008135905061135981611333565b92915050565b6000602082840312156113755761137461131f565b5b60006113838482850161134a565b91505092915050565b600081519050919050565b600082825260208201905092915050565b6000819050602082019050919050565b6113c181611329565b82525050565b600081519050919050565b600082825260208201905092915050565b60005b838110156114015780820151818401526020810190506113e6565b60008484015250505050565b6000601f19601f8301169050919050565b6000611429826113c7565b61143381856113d2565b93506114438185602086016113e3565b61144c8161140d565b840191505092915050565b600060608301600083015161146f60008601826113b8565b5060208301518482036020860152611487828261141e565b915050604083015161149c60408601826113b8565b508091505092915050565b60006114b38383611457565b905092915050565b6000602082019050919050565b60006114d38261138c565b6114dd8185611397565b9350836020820285016114ef856113a8565b8060005b8581101561152b578484038952815161150c85826114a7565b9450611517836114bb565b925060208a019950506001810190506114f3565b50829750879550505050505092915050565b6000602082019050818103600083015261155781846114c8565b905092915050565b600073ffffffffffffffffffffffffffffffffffffffff82169050919050565b600061158a8261155f565b9050919050565b61159a8161157f565b81146115a557600080fd5b50565b6000813590506115b781611591565b92915050565b600080604083850312156115d4576115d361131f565b5b60006115e28582860161134a565b92505060206115f3858286016115a8565b9150509250929050565b60008115159050919050565b611612816115fd565b82525050565b600060208201905061162d6000830184611609565b92915050565b61163c81611329565b82525050565b600082825260208201905092915050565b600061165e826113c7565b6116688185611642565b93506116788185602086016113e3565b6116818161140d565b840191505092915050565b6000610100820190506116a2600083018b611633565b81810360208301526116b4818a611653565b90506116c36040830189611633565b6116d06060830188611633565b6116dd6080830187611633565b6116ea60a0830186611609565b6116f760c0830185611609565b61170460e0830184611609565b9998505050505050505050565b600080604083850312156117285761172761131f565b5b60006117368582860161134a565b92505060206117478582860161134a565b9150509250929050565b60006060820190506117666000830186611633565b81810360208301526117788185611653565b90506117876040830184611633565b949350505050565b600081519050919050565b600082825260208201905092915050565b6000819050602082019050919050565b6117c4816115fd565b82525050565b6000610100830160008301516117e360008601826113b8565b50602083015184820360208601526117fb828261141e565b915050604083015161181060408601826113b8565b50606083015161182360608601826113b8565b50608083015161183660808601826113b8565b5060a083015161184960a08601826117bb565b5060c083015161185c60c08601826117bb565b5060e083015161186f60e08601826117bb565b508091505092915050565b600061188683836117ca565b905092915050565b6000602082019050919050565b60006118a68261178f565b6118b0818561179a565b9350836020820285016118c2856117ab565b8060005b858110156118fe57848403895281516118df858261187a565b94506118ea8361188e565b925060208a019950506001810190506118c6565b50829750879550505050505092915050565b6000602082019050818103600083015261192a818461189b565b905092915050565b60006020820190506119476000830184611633565b92915050565b60006101008301600083015161196660008601826113b8565b506020830151848203602086015261197e828261141e565b915050604083015161199360408601826113b8565b5060608301516119a660608601826113b8565b5060808301516119b960808601826113b8565b5060a08301516119cc60a08601826117bb565b5060c08301516119df60c08601826117bb565b5060e08301516119f260e08601826117bb565b508091505092915050565b60006020820190508181036000830152611a17818461194d565b905092915050565b600080fd5b600080fd5b7f4e487b7100000000000000000000000000000000000000000000000000000000600052604160045260246000fd5b611a618261140d565b810181811067ffffffffffffffff82111715611a8057611a7f611a29565b5b80604052505050565b6000611a93611315565b9050611a9f8282611a58565b919050565b600067ffffffffffffffff821115611abf57611abe611a29565b5b611ac88261140d565b9050602081019050919050565b82818337600083830152505050565b6000611af7611af284611aa4565b611a89565b905082815260208101848484011115611b1357611b12611a24565b5b611b1e848285611ad5565b509392505050565b600082601f830112611b3b57611b3a611a1f565b5b8135611b4b848260208601611ae4565b91505092915050565b600067ffffffffffffffff821115611b6f57611b6e611a29565b5b602082029050602081019050919050565b600080fd5b6000611b98611b9384611b54565b611a89565b90508083825260208201905060208402830185811115611bbb57611bba611b80565b5b835b81811015611c0257803567ffffffffffffffff811115611be057611bdf611a1f565b5b808601611bed8982611b26565b85526020850194505050602081019050611bbd565b5050509392505050565b600082601f830112611c2157611c20611a1f565b5b8135611c31848260208601611b85565b91505092915050565b600080600060608486031215611c5357611c5261131f565b5b600084013567ffffffffffffffff811115611c7157611c70611324565b5b611c7d86828701611b26565b935050602084013567ffffffffffffffff811115611c9e57611c9d611324565b5b611caa86828701611c0c565b9250506040611cbb8682870161134a565b9150509250925092565b611cce8161157f565b82525050565b6000602082019050611ce96000830184611cc5565b92915050565b7f4e487b7100000000000000000000000000000000000000000000000000000000600052602260045260246000fd5b60006002820490506001821680611d3657607f821691505b602082108103611d4957611d48611cef565b5b50919050565b7f4f6e6c792061646d696e2063616e20706572666f726d2074686973206163746960008201527f6f6e000000000000000000000000000000000000000000000000000000000000602082015250565b6000611dab602283611642565b9150611db682611d4f565b604082019050919050565b60006020820190508181036000830152611dda81611d9e565b9050919050565b7f456c656374696f6e20646f6573206e6f74206578697374000000000000000000600082015250565b6000611e17601783611642565b9150611e2282611de1565b602082019050919050565b60006020820190508181036000830152611e4681611e0a565b9050919050565b7f456c656374696f6e20616c726561647920737461727465640000000000000000600082015250565b6000611e83601883611642565b9150611e8e82611e4d565b602082019050919050565b60006020820190508181036000830152611eb281611e76565b9050919050565b7f456c656374696f6e20616c726561647920656e64656400000000000000000000600082015250565b6000611eef601683611642565b9150611efa82611eb9565b602082019050919050565b60006020820190508181036000830152611f1e81611ee2565b9050919050565b7f4e487b7100000000000000000000000000000000000000000000000000000000600052601160045260246000fd5b6000611f5f82611329565b9150611f6a83611329565b9250828202611f7881611329565b91508282048414831517611f8f57611f8e611f25565b5b5092915050565b6000611fa182611329565b9150611fac83611329565b9250828201905080821115611fc457611fc3611f25565b5b92915050565b6000606082019050611fdf6000830186611633565b611fec6020830185611633565b611ff96040830184611633565b949350505050565b600061200c82611329565b915061201783611329565b925082820390508181111561202f5761202e611f25565b5b92915050565b7f4e487b7100000000000000000000000000000000000000000000000000000000600052603260045260246000fd5b600061206f82611329565b91507fffffffffffffffffffffffffffffffffffffffffffffffffffffffffffffffff82036120a1576120a0611f25565b5b600182019050919050565b7f456c656374696f6e206861736e27742073746172746564207965740000000000600082015250565b60006120e2601b83611642565b91506120ed826120ac565b602082019050919050565b60006020820190508181036000830152612111816120d5565b9050919050565b600060408201905061212d6000830185611633565b61213a6020830184611633565b9392505050565b60008190508160005260206000209050919050565b60006020601f8301049050919050565b600082821b905092915050565b6000600883026121a37fffffffffffffffffffffffffffffffffffffffffffffffffffffffffffffffff82612166565b6121ad8683612166565b95508019841693508086168417925050509392505050565b6000819050919050565b60006121ea6121e56121e084611329565b6121c5565b611329565b9050919050565b6000819050919050565b612204836121cf565b612218612210826121f1565b848454612173565b825550505050565b600090565b61222d612220565b6122388184846121fb565b505050565b5b8181101561225c57612251600082612225565b60018101905061223e565b5050565b601f8211156122a15761227281612141565b61227b84612156565b8101602085101561228a578190505b61229e61229685612156565b83018261223d565b50505b505050565b600082821c905092915050565b60006122c4600019846008026122a6565b1980831691505092915050565b60006122dd83836122b3565b9150826002028217905092915050565b6122f6826113c7565b67ffffffffffffffff81111561230f5761230e611a29565b5b6123198254611d1e565b612324828285612260565b600060209050601f8311600181146123575760008415612345578287015190505b61234f85826122d1565b8655506123b7565b601f19841661236586612141565b60005b8281101561238d57848901518255600182019150602085019450602081019050612368565b868310156123aa57848901516123a6601f8916826122b3565b8355505b6001600288020188555050505b505050505050565b7f456c656374696f6e20686173206e6f7420737461727465640000000000000000600082015250565b60006123f5601883611642565b9150612400826123bf565b602082019050919050565b60006020820190508181036000830152612424816123e8565b9050919050565b7f456c656374696f6e2068617320656e6465640000000000000000000000000000600082015250565b6000612461601283611642565b915061246c8261242b565b602082019050919050565b6000602082019050818103600083015261249081612454565b9050919050565b7f456c656374696f6e2074696d6520657870697265640000000000000000000000600082015250565b60006124cd601583611642565b91506124d882612497565b602082019050919050565b600060208201905081810360008301526124fc816124c0565b9050919050565b7f596f75206861766520616c726561647920766f74656420696e2074686973206560008201527f6c656374696f6e00000000000000000000000000000000000000000000000000602082015250565b600061255f602783611642565b915061256a82612503565b604082019050919050565b6000602082019050818103600083015261258e81612552565b9050919050565b7f496e76616c69642063616e646964617465000000000000000000000000000000600082015250565b60006125cb601183611642565b91506125d682612595565b602082019050919050565b600060208201905081810360008301526125fa816125be565b9050919050565b60006060820190506126166000830186611633565b6126236020830185611633565b6126306040830184611cc5565b94935050505056fea264697066735822122010608faa38f0e9d68d641150cb7aa1977681295dcda37e80a5ce3bbf50c0374b64736f6c634300081c0033",
  "linkReferences": {},
  "deployedLinkReferences": {}
}